{
  "address": "0x6e6Eb84716c032F2Fe9ef9bf1965cB0e76989d22",
  "abi": [
    {
      "inputs": [
        {
          "internalType": "address",
          "name": "_factory",
          "type": "address"
        }
      ],
      "stateMutability": "nonpayable",
      "type": "constructor"
    },
    {
      "anonymous": false,
      "inputs": [
        {
          "indexed": true,
          "internalType": "address",
          "name": "previousOwner",
          "type": "address"
        },
        {
          "indexed": true,
          "internalType": "address",
          "name": "newOwner",
          "type": "address"
        }
      ],
      "name": "OwnershipTransferred",
      "type": "event"
    },
    {
      "anonymous": false,
      "inputs": [
        {
          "indexed": false,
          "internalType": "address",
          "name": "token",
          "type": "address"
        },
        {
          "indexed": false,
          "internalType": "uint256",
          "name": "amount",
          "type": "uint256"
        }
      ],
      "name": "TokenSeized",
      "type": "event"
    },
    {
      "inputs": [],
      "name": "claimAllRewards",
      "outputs": [],
      "stateMutability": "nonpayable",
      "type": "function"
    },
    {
      "inputs": [
        {
          "internalType": "address[]",
          "name": "stakingRewards",
          "type": "address[]"
        }
      ],
      "name": "claimRewards",
      "outputs": [],
      "stateMutability": "nonpayable",
      "type": "function"
    },
    {
      "inputs": [],
      "name": "factory",
      "outputs": [
        {
          "internalType": "contract StakingRewardsFactoryInterface",
          "name": "",
          "type": "address"
        }
      ],
      "stateMutability": "view",
      "type": "function"
    },
    {
      "inputs": [
        {
          "internalType": "address",
          "name": "rewardToken",
          "type": "address"
        }
      ],
      "name": "getRewardTokenInfo",
      "outputs": [
        {
          "components": [
            {
              "internalType": "address",
              "name": "rewardTokenAddress",
              "type": "address"
            },
            {
              "internalType": "string",
              "name": "rewardTokenSymbol",
              "type": "string"
            },
            {
              "internalType": "uint8",
              "name": "rewardTokenDecimals",
              "type": "uint8"
            }
          ],
          "internalType": "struct StakingRewardsHelper.RewardTokenInfo",
          "name": "",
          "type": "tuple"
        }
      ],
      "stateMutability": "view",
      "type": "function"
    },
    {
      "inputs": [],
      "name": "getStakingInfo",
      "outputs": [
        {
          "components": [
            {
              "internalType": "address",
              "name": "stakingTokenAddress",
              "type": "address"
            },
            {
              "internalType": "uint256",
              "name": "totalSupply",
              "type": "uint256"
            },
            {
              "internalType": "uint256",
              "name": "supplyRatePerBlock",
              "type": "uint256"
            },
            {
              "internalType": "uint256",
              "name": "exchangeRate",
              "type": "uint256"
            },
            {
              "components": [
                {
                  "internalType": "address",
                  "name": "rewardTokenAddress",
                  "type": "address"
                },
                {
                  "internalType": "uint256",
                  "name": "rate",
                  "type": "uint256"
                }
              ],
              "internalType": "struct StakingRewardsHelper.RewardRate[]",
              "name": "rewardRates",
              "type": "tuple[]"
            }
          ],
          "internalType": "struct StakingRewardsHelper.StakingInfo[]",
          "name": "",
          "type": "tuple[]"
        }
      ],
      "stateMutability": "view",
      "type": "function"
    },
    {
      "inputs": [
        {
          "internalType": "address",
          "name": "account",
          "type": "address"
        },
        {
          "internalType": "address[]",
          "name": "rewardTokens",
          "type": "address[]"
        }
      ],
      "name": "getUserClaimableRewards",
      "outputs": [
        {
          "components": [
            {
              "components": [
                {
                  "internalType": "address",
                  "name": "rewardTokenAddress",
                  "type": "address"
                },
                {
                  "internalType": "string",
                  "name": "rewardTokenSymbol",
                  "type": "string"
                },
                {
                  "internalType": "uint8",
                  "name": "rewardTokenDecimals",
                  "type": "uint8"
                }
              ],
              "internalType": "struct StakingRewardsHelper.RewardTokenInfo",
              "name": "rewardToken",
              "type": "tuple"
            },
            {
              "internalType": "uint256",
              "name": "amount",
              "type": "uint256"
            }
          ],
          "internalType": "struct StakingRewardsHelper.RewardClaimable[]",
          "name": "",
          "type": "tuple[]"
        }
      ],
      "stateMutability": "view",
      "type": "function"
    },
    {
      "inputs": [
        {
          "internalType": "address",
          "name": "account",
          "type": "address"
        }
      ],
      "name": "getUserStaked",
      "outputs": [
        {
          "components": [
            {
              "internalType": "address",
              "name": "stakingTokenAddress",
              "type": "address"
            },
            {
              "internalType": "uint256",
              "name": "balance",
              "type": "uint256"
            }
          ],
          "internalType": "struct StakingRewardsHelper.UserStaked[]",
          "name": "",
          "type": "tuple[]"
        }
      ],
      "stateMutability": "view",
      "type": "function"
    },
    {
      "inputs": [],
      "name": "owner",
      "outputs": [
        {
          "internalType": "address",
          "name": "",
          "type": "address"
        }
      ],
      "stateMutability": "view",
      "type": "function"
    },
    {
      "inputs": [],
      "name": "renounceOwnership",
      "outputs": [],
      "stateMutability": "nonpayable",
      "type": "function"
    },
    {
      "inputs": [
        {
          "internalType": "address",
          "name": "token",
          "type": "address"
        },
        {
          "internalType": "uint256",
          "name": "amount",
          "type": "uint256"
        }
      ],
      "name": "seize",
      "outputs": [],
      "stateMutability": "nonpayable",
      "type": "function"
    },
    {
      "inputs": [
        {
          "internalType": "address",
          "name": "underlying",
          "type": "address"
        },
        {
          "internalType": "uint256",
          "name": "amount",
          "type": "uint256"
        }
      ],
      "name": "stake",
      "outputs": [],
      "stateMutability": "nonpayable",
      "type": "function"
    },
    {
      "inputs": [
        {
          "internalType": "address",
          "name": "newOwner",
          "type": "address"
        }
      ],
      "name": "transferOwnership",
      "outputs": [],
      "stateMutability": "nonpayable",
      "type": "function"
    }
  ],
  "transactionHash": "0xc6b8bd84855f41fe20f9b3e424b5653429ba43fb7fdf22e7e7839113dde7676d",
  "args": [
    "0x8c5D04d22CA563aa9FB783C263AE9bEA20d3a332"
  ],
  "numDeployments": 1,
  "solcInputHash": "9c37a56f46d21eb8419991595db473a2",
  "bytecode": "0x60a06040523480156200001157600080fd5b5060405162001fad38038062001fad8339810160408190526200003491620000a1565b6200003f3362000051565b6001600160a01b0316608052620000d3565b600080546001600160a01b038381166001600160a01b0319831681178455604051919092169283917f8be0079c531659141344cd1fd0a4f28419497f9722a3daafe3b4186f6b6457e09190a35050565b600060208284031215620000b457600080fd5b81516001600160a01b0381168114620000cc57600080fd5b9392505050565b608051611e946200011960003960008181610142015281816101e101528181610315015281816103f3015281816108ce01528181610e49015261104e0152611e946000f3fe608060405234801561001057600080fd5b50600436106100b45760003560e01c8063c45a015511610071578063c45a01551461013d578063d3e64cab14610164578063dac3fc3f14610184578063eb9253c0146101a4578063f2fde38b146101b7578063f9f031df146101ca57600080fd5b80630b83a727146100b9578063715018a6146100c35780638da5cb5b146100cb578063adc9772e146100f5578063b2989f5d14610108578063b40cd21d14610128575b600080fd5b6100c16101dd565b005b6100c1610273565b6000546001600160a01b03165b6040516001600160a01b0390911681526020015b60405180910390f35b6100c16101033660046117b7565b6102b2565b61011b6101163660046117e3565b6107a6565b6040516100ec9190611896565b6101306108c8565b6040516100ec91906118a9565b6100d87f000000000000000000000000000000000000000000000000000000000000000081565b61017761017236600461198a565b610dcb565b6040516100ec9190611a12565b6101976101923660046117e3565b611048565b6040516100ec9190611a88565b6100c16101b23660046117b7565b611291565b6100c16101c53660046117e3565b611327565b6100c16101d8366004611b53565b6113bf565b60007f00000000000000000000000000000000000000000000000000000000000000006001600160a01b031663918e4c0d6040518163ffffffff1660e01b8152600401600060405180830381865afa15801561023d573d6000803e3d6000fd5b505050506040513d6000823e601f3d908101601f191682016040526102659190810190611be7565b9050610270816113bf565b50565b6000546001600160a01b031633146102a65760405162461bcd60e51b815260040161029d90611c76565b60405180910390fd5b6102b06000611459565b565b600081116102f35760405162461bcd60e51b815260206004820152600e60248201526d1a5b9d985b1a5908185b5bdd5b9d60921b604482015260640161029d565b604051630a69c70f60e21b81526001600160a01b0383811660048301526000917f0000000000000000000000000000000000000000000000000000000000000000909116906329a71c3c90602401602060405180830381865afa15801561035e573d6000803e3d6000fd5b505050506040513d601f19601f820116820180604052508101906103829190611cab565b90506001600160a01b0381166103d25760405162461bcd60e51b815260206004820152601560248201527434b73b30b634b21039ba30b5b4b733903a37b5b2b760591b604482015260640161029d565b6040516210f7f160e91b81526001600160a01b0382811660048301526000917f0000000000000000000000000000000000000000000000000000000000000000909116906321efe20090602401602060405180830381865afa15801561043c573d6000803e3d6000fd5b505050506040513d601f19601f820116820180604052508101906104609190611cab565b90506001600160a01b0381166104b85760405162461bcd60e51b815260206004820152601960248201527f7374616b696e672072657761726473206e6f7420657869737400000000000000604482015260640161029d565b6104cd6001600160a01b0385163330866114a9565b60405163095ea7b360e01b81526001600160a01b0383811660048301526024820185905285169063095ea7b3906044016020604051808303816000875af115801561051c573d6000803e3d6000fd5b505050506040513d601f19601f820116820180604052508101906105409190611cc8565b5060405163140e25ad60e31b8152600481018490526001600160a01b0383169063a0712d68906024016020604051808303816000875af1158015610588573d6000803e3d6000fd5b505050506040513d601f19601f820116820180604052508101906105ac9190611cea565b156105e75760405162461bcd60e51b815260206004820152600b60248201526a1b5a5b9d0819985a5b195960aa1b604482015260640161029d565b6040516370a0823160e01b81523060048201526000906001600160a01b038416906370a0823190602401602060405180830381865afa15801561062e573d6000803e3d6000fd5b505050506040513d601f19601f820116820180604052508101906106529190611cea565b60405163095ea7b360e01b81526001600160a01b038481166004830152602482018390529192509084169063095ea7b3906044016020604051808303816000875af11580156106a5573d6000803e3d6000fd5b505050506040513d601f19601f820116820180604052508101906106c99190611cc8565b506040516305dc812160e31b8152336004820152602481018290526001600160a01b03831690632ee4090890604401600060405180830381600087803b15801561071257600080fd5b505af1158015610726573d6000803e3d6000fd5b50506040516370a0823160e01b81523060048201526001600160a01b03861692506370a082319150602401602060405180830381865afa15801561076e573d6000803e3d6000fd5b505050506040513d601f19601f820116820180604052508101906107929190611cea565b1561079f5761079f611d03565b5050505050565b6107d6604051806060016040528060006001600160a01b0316815260200160608152602001600060ff1681525090565b6040518060600160405280836001600160a01b03168152602001836001600160a01b03166395d89b416040518163ffffffff1660e01b8152600401600060405180830381865afa15801561082e573d6000803e3d6000fd5b505050506040513d6000823e601f3d908101601f191682016040526108569190810190611d19565b8152602001836001600160a01b031663313ce5676040518163ffffffff1660e01b8152600401602060405180830381865afa158015610899573d6000803e3d6000fd5b505050506040513d601f19601f820116820180604052508101906108bd9190611dad565b60ff16905292915050565b606060007f00000000000000000000000000000000000000000000000000000000000000006001600160a01b031663918e4c0d6040518163ffffffff1660e01b8152600401600060405180830381865afa15801561092a573d6000803e3d6000fd5b505050506040513d6000823e601f3d908101601f191682016040526109529190810190611be7565b90506000815167ffffffffffffffff81111561097057610970611ae8565b6040519080825280602002602001820160405280156109dc57816020015b6109c96040518060a0016040528060006001600160a01b03168152602001600081526020016000815260200160008152602001606081525090565b81526020019060019003908161098e5790505b50905060005b8251811015610dc45760008382815181106109ff576109ff611dd0565b602002602001015190506000816001600160a01b0316638040c65b6040518163ffffffff1660e01b8152600401600060405180830381865afa158015610a49573d6000803e3d6000fd5b505050506040513d6000823e601f3d908101601f19168201604052610a719190810190611be7565b90506000815167ffffffffffffffff811115610a8f57610a8f611ae8565b604051908082528060200260200182016040528015610ad457816020015b6040805180820190915260008082526020820152815260200190600190039081610aad5790505b50905060005b8251811015610bc4576000838281518110610af757610af7611dd0565b602090810291909101015160405163ea7cbff160e01b81526001600160a01b03808316600483015291925060009187169063ea7cbff190602401602060405180830381865afa158015610b4e573d6000803e3d6000fd5b505050506040513d601f19601f82011682018060405250810190610b729190611cea565b90506040518060400160405280836001600160a01b0316815260200182815250848481518110610ba457610ba4611dd0565b602002602001018190525050508080610bbc90611dfc565b915050610ada565b506000836001600160a01b0316639f9106d16040518163ffffffff1660e01b8152600401602060405180830381865afa158015610c05573d6000803e3d6000fd5b505050506040513d601f19601f82011682018060405250810190610c299190611cab565b90506000846001600160a01b03166318160ddd6040518163ffffffff1660e01b8152600401602060405180830381865afa158015610c6b573d6000803e3d6000fd5b505050506040513d601f19601f82011682018060405250810190610c8f9190611cea565b90506000826001600160a01b031663ae9d70b06040518163ffffffff1660e01b8152600401602060405180830381865afa158015610cd1573d6000803e3d6000fd5b505050506040513d601f19601f82011682018060405250810190610cf59190611cea565b90506000836001600160a01b031663182df0f56040518163ffffffff1660e01b8152600401602060405180830381865afa158015610d37573d6000803e3d6000fd5b505050506040513d601f19601f82011682018060405250810190610d5b9190611cea565b90506040518060a00160405280856001600160a01b0316815260200184815260200183815260200182815260200186815250898981518110610d9f57610d9f611dd0565b6020026020010181905250505050505050508080610dbc90611dfc565b9150506109e2565b5092915050565b606060008267ffffffffffffffff811115610de857610de8611ae8565b604051908082528060200260200182016040528015610e4257816020015b6040805160a08101825260009181018281526060808301526080820183905281526020810191909152815260200190600190039081610e065790505b50905060007f00000000000000000000000000000000000000000000000000000000000000006001600160a01b031663918e4c0d6040518163ffffffff1660e01b8152600401600060405180830381865afa158015610ea5573d6000803e3d6000fd5b505050506040513d6000823e601f3d908101601f19168201604052610ecd9190810190611be7565b905060005b8481101561103b576000805b8351811015610fcb576000848281518110610efb57610efb611dd0565b60200260200101519050806001600160a01b031663211dc32d8a8a87818110610f2657610f26611dd0565b9050602002016020810190610f3b91906117e3565b6040516001600160e01b031960e084901b1681526001600160a01b039182166004820152908d166024820152604401602060405180830381865afa158015610f87573d6000803e3d6000fd5b505050506040513d601f19601f82011682018060405250810190610fab9190611cea565b610fb59084611e17565b9250508080610fc390611dfc565b915050610ede565b506040518060400160405280611001898986818110610fec57610fec611dd0565b905060200201602081019061011691906117e3565b81526020018281525084838151811061101c5761101c611dd0565b602002602001018190525050808061103390611dfc565b915050610ed2565b50909150505b9392505050565b606060007f00000000000000000000000000000000000000000000000000000000000000006001600160a01b031663918e4c0d6040518163ffffffff1660e01b8152600401600060405180830381865afa1580156110aa573d6000803e3d6000fd5b505050506040513d6000823e601f3d908101601f191682016040526110d29190810190611be7565b90506000815167ffffffffffffffff8111156110f0576110f0611ae8565b60405190808252806020026020018201604052801561113557816020015b604080518082019091526000808252602082015281526020019060019003908161110e5790505b50905060005b825181101561128957600083828151811061115857611158611dd0565b602002602001015190506000816001600160a01b0316639f9106d16040518163ffffffff1660e01b8152600401602060405180830381865afa1580156111a2573d6000803e3d6000fd5b505050506040513d601f19601f820116820180604052508101906111c69190611cab565b6040516370a0823160e01b81526001600160a01b0389811660048301529192506000918416906370a0823190602401602060405180830381865afa158015611212573d6000803e3d6000fd5b505050506040513d601f19601f820116820180604052508101906112369190611cea565b90506040518060400160405280836001600160a01b031681526020018281525085858151811061126857611268611dd0565b6020026020010181905250505050808061128190611dfc565b91505061113b565b509392505050565b6000546001600160a01b031633146112bb5760405162461bcd60e51b815260040161029d90611c76565b6112e16112d06000546001600160a01b031690565b6001600160a01b038416908361151a565b604080516001600160a01b0384168152602081018390527fb930d7c3c6896f70ea10a959f1d9a7c04e0467138efa4c7040570d4b8f4894b6910160405180910390a15050565b6000546001600160a01b031633146113515760405162461bcd60e51b815260040161029d90611c76565b6001600160a01b0381166113b65760405162461bcd60e51b815260206004820152602660248201527f4f776e61626c653a206e6577206f776e657220697320746865207a65726f206160448201526564647265737360d01b606482015260840161029d565b61027081611459565b60005b8151811015611455578181815181106113dd576113dd611dd0565b602090810291909101015160405163055de27560e01b81523360048201526001600160a01b039091169063055de27590602401600060405180830381600087803b15801561142a57600080fd5b505af115801561143e573d6000803e3d6000fd5b50505050808061144d90611dfc565b9150506113c2565b5050565b600080546001600160a01b038381166001600160a01b0319831681178455604051919092169283917f8be0079c531659141344cd1fd0a4f28419497f9722a3daafe3b4186f6b6457e09190a35050565b6040516001600160a01b03808516602483015283166044820152606481018290526115149085906323b872dd60e01b906084015b60408051601f198184030181529190526020810180516001600160e01b03166001600160e01b03199093169290921790915261154f565b50505050565b6040516001600160a01b03831660248201526044810182905261154a90849063a9059cbb60e01b906064016114dd565b505050565b60006115a4826040518060400160405280602081526020017f5361666545524332303a206c6f772d6c6576656c2063616c6c206661696c6564815250856001600160a01b03166116219092919063ffffffff16565b80519091501561154a57808060200190518101906115c29190611cc8565b61154a5760405162461bcd60e51b815260206004820152602a60248201527f5361666545524332303a204552433230206f7065726174696f6e20646964206e6044820152691bdd081cdd58d8d9595960b21b606482015260840161029d565b60606116308484600085611638565b949350505050565b6060824710156116995760405162461bcd60e51b815260206004820152602660248201527f416464726573733a20696e73756666696369656e742062616c616e636520666f6044820152651c8818d85b1b60d21b606482015260840161029d565b6001600160a01b0385163b6116f05760405162461bcd60e51b815260206004820152601d60248201527f416464726573733a2063616c6c20746f206e6f6e2d636f6e7472616374000000604482015260640161029d565b600080866001600160a01b0316858760405161170c9190611e2f565b60006040518083038185875af1925050503d8060008114611749576040519150601f19603f3d011682016040523d82523d6000602084013e61174e565b606091505b509150915061175e828286611769565b979650505050505050565b60608315611778575081611041565b8251156117885782518084602001fd5b8160405162461bcd60e51b815260040161029d9190611e4b565b6001600160a01b038116811461027057600080fd5b600080604083850312156117ca57600080fd5b82356117d5816117a2565b946020939093013593505050565b6000602082840312156117f557600080fd5b8135611041816117a2565b60005b8381101561181b578181015183820152602001611803565b838111156115145750506000910152565b60008151808452611844816020860160208601611800565b601f01601f19169290920160200192915050565b60018060a01b038151168252600060208201516060602085015261187f606085018261182c565b60409384015160ff16949093019390935250919050565b6020815260006110416020830184611858565b60006020808301818452808551808352604092508286019150828160051b8701018488016000805b8481101561197b57898403603f19018652825180516001600160a01b03168552888101518986015287810151888601526060808201519086015260809081015160a0918601829052805191860182905289019060c086019084905b808210156119665761195283855180516001600160a01b03168252602090810151910152565b928b0192918a01916001919091019061192c565b505096890196945050918701916001016118d1565b50919998505050505050505050565b60008060006040848603121561199f57600080fd5b83356119aa816117a2565b9250602084013567ffffffffffffffff808211156119c757600080fd5b818601915086601f8301126119db57600080fd5b8135818111156119ea57600080fd5b8760208260051b85010111156119ff57600080fd5b6020830194508093505050509250925092565b60006020808301818452808551808352604092508286019150828160051b87010184880160005b83811015611a7a57888303603f1901855281518051878552611a5d88860182611858565b918901519489019490945294870194925090860190600101611a39565b509098975050505050505050565b602080825282518282018190526000919060409081850190868401855b82811015611adb57611acb84835180516001600160a01b03168252602090810151910152565b9284019290850190600101611aa5565b5091979650505050505050565b634e487b7160e01b600052604160045260246000fd5b604051601f8201601f1916810167ffffffffffffffff81118282101715611b2757611b27611ae8565b604052919050565b600067ffffffffffffffff821115611b4957611b49611ae8565b5060051b60200190565b60006020808385031215611b6657600080fd5b823567ffffffffffffffff811115611b7d57600080fd5b8301601f81018513611b8e57600080fd5b8035611ba1611b9c82611b2f565b611afe565b81815260059190911b82018301908381019087831115611bc057600080fd5b928401925b8284101561175e578335611bd8816117a2565b82529284019290840190611bc5565b60006020808385031215611bfa57600080fd5b825167ffffffffffffffff811115611c1157600080fd5b8301601f81018513611c2257600080fd5b8051611c30611b9c82611b2f565b81815260059190911b82018301908381019087831115611c4f57600080fd5b928401925b8284101561175e578351611c67816117a2565b82529284019290840190611c54565b6020808252818101527f4f776e61626c653a2063616c6c6572206973206e6f7420746865206f776e6572604082015260600190565b600060208284031215611cbd57600080fd5b8151611041816117a2565b600060208284031215611cda57600080fd5b8151801515811461104157600080fd5b600060208284031215611cfc57600080fd5b5051919050565b634e487b7160e01b600052600160045260246000fd5b600060208284031215611d2b57600080fd5b815167ffffffffffffffff80821115611d4357600080fd5b818401915084601f830112611d5757600080fd5b815181811115611d6957611d69611ae8565b611d7c601f8201601f1916602001611afe565b9150808252856020828501011115611d9357600080fd5b611da4816020840160208601611800565b50949350505050565b600060208284031215611dbf57600080fd5b815160ff8116811461104157600080fd5b634e487b7160e01b600052603260045260246000fd5b634e487b7160e01b600052601160045260246000fd5b6000600019821415611e1057611e10611de6565b5060010190565b60008219821115611e2a57611e2a611de6565b500190565b60008251611e41818460208701611800565b9190910192915050565b602081526000611041602083018461182c56fea264697066735822122004b6b31193ff88a4cc7e3239346366ed14aaa06bc683bda75689a07dc97e56a264736f6c634300080c0033",
  "devdoc": {
    "kind": "dev",
    "methods": {
      "claimRewards(address[])": {
        "params": {
          "stakingRewards": "The list of staking rewards"
        }
      },
      "getRewardTokenInfo(address)": {
        "params": {
          "rewardToken": "The reward token"
        },
        "returns": {
          "_0": "The reward token info"
        }
      },
      "getStakingInfo()": {
        "returns": {
          "_0": "The list of staking info"
        }
      },
      "getUserClaimableRewards(address,address[])": {
        "params": {
          "account": "The account",
          "rewardTokens": "The list of reward tokens"
        },
        "returns": {
          "_0": "The list of user claimable rewards"
        }
      },
      "getUserStaked(address)": {
        "params": {
          "account": "The account"
        },
        "returns": {
          "_0": "The list of user staked info"
        }
      },
      "owner()": {
        "details": "Returns the address of the current owner."
      },
      "renounceOwnership()": {
        "details": "Leaves the contract without owner. It will not be possible to call `onlyOwner` functions anymore. Can only be called by the current owner. NOTE: Renouncing ownership will leave the contract without an owner, thereby removing any functionality that is only available to the owner."
      },
      "seize(address,uint256)": {
        "params": {
          "amount": "The amount",
          "token": "The token"
        }
      },
      "stake(address,uint256)": {
        "params": {
          "amount": "The amount",
          "underlying": "The underlying token"
        }
      },
      "transferOwnership(address)": {
        "details": "Transfers ownership of the contract to a new account (`newOwner`). Can only be called by the current owner."
      }
    },
    "version": 1
  },
  "userdoc": {
    "events": {
      "TokenSeized(address,uint256)": {
        "notice": "Emitted when tokens are seized"
      }
    },
    "kind": "user",
    "methods": {
      "claimAllRewards()": {
        "notice": "Claim all rewards"
      },
      "claimRewards(address[])": {
        "notice": "Claim rewards by given staking rewards"
      },
      "getRewardTokenInfo(address)": {
        "notice": "Getthe reward token info"
      },
      "getStakingInfo()": {
        "notice": "Get all the staking info"
      },
      "getUserClaimableRewards(address,address[])": {
        "notice": "Get user claimable rewards"
      },
      "getUserStaked(address)": {
        "notice": "Get user staked info"
      },
      "seize(address,uint256)": {
        "notice": "Seize tokens in this contract."
      },
      "stake(address,uint256)": {
        "notice": "Mint and stake tokens into staking rewards"
      }
    },
    "version": 1
  },
  "storageLayout": {
    "storage": [
      {
        "astId": 7,
        "contract": "contracts/StakingRewardsHelper.sol:StakingRewardsHelper",
        "label": "_owner",
        "offset": 0,
        "slot": "0",
        "type": "t_address"
      }
    ],
    "types": {
      "t_address": {
        "encoding": "inplace",
        "label": "address",
        "numberOfBytes": "20"
      }
    }
  }
}