{
  "address": "0x7d0Eb0EcFBD990Ba1bDB3Ecb40ae12ecFbC5C7CB",
  "abi": [
    {
      "inputs": [
        {
          "internalType": "address",
          "name": "_factory",
          "type": "address"
        },
        {
          "internalType": "address",
          "name": "_wrappedNative",
          "type": "address"
        }
      ],
      "stateMutability": "nonpayable",
      "type": "constructor"
    },
    {
      "anonymous": false,
      "inputs": [
        {
          "indexed": true,
          "internalType": "address",
          "name": "previousOwner",
          "type": "address"
        },
        {
          "indexed": true,
          "internalType": "address",
          "name": "newOwner",
          "type": "address"
        }
      ],
      "name": "OwnershipTransferred",
      "type": "event"
    },
    {
      "anonymous": false,
      "inputs": [
        {
          "indexed": false,
          "internalType": "address",
          "name": "token",
          "type": "address"
        },
        {
          "indexed": false,
          "internalType": "uint256",
          "name": "amount",
          "type": "uint256"
        }
      ],
      "name": "TokenSeized",
      "type": "event"
    },
    {
      "inputs": [],
      "name": "claimAllRewards",
      "outputs": [],
      "stateMutability": "nonpayable",
      "type": "function"
    },
    {
      "inputs": [
        {
          "internalType": "address[]",
          "name": "stakingRewards",
          "type": "address[]"
        }
      ],
      "name": "claimRewards",
      "outputs": [],
      "stateMutability": "nonpayable",
      "type": "function"
    },
    {
      "inputs": [
        {
          "internalType": "address[]",
          "name": "stakingRewards",
          "type": "address[]"
        }
      ],
      "name": "exit",
      "outputs": [],
      "stateMutability": "nonpayable",
      "type": "function"
    },
    {
      "inputs": [],
      "name": "exitAll",
      "outputs": [],
      "stateMutability": "nonpayable",
      "type": "function"
    },
    {
      "inputs": [],
      "name": "factory",
      "outputs": [
        {
          "internalType": "contract StakingRewardsFactoryInterface",
          "name": "",
          "type": "address"
        }
      ],
      "stateMutability": "view",
      "type": "function"
    },
    {
      "inputs": [
        {
          "internalType": "address",
          "name": "rewardToken",
          "type": "address"
        }
      ],
      "name": "getRewardTokenInfo",
      "outputs": [
        {
          "components": [
            {
              "internalType": "address",
              "name": "rewardTokenAddress",
              "type": "address"
            },
            {
              "internalType": "string",
              "name": "rewardTokenSymbol",
              "type": "string"
            },
            {
              "internalType": "uint8",
              "name": "rewardTokenDecimals",
              "type": "uint8"
            }
          ],
          "internalType": "struct StakingRewardsHelper.RewardTokenInfo",
          "name": "",
          "type": "tuple"
        }
      ],
      "stateMutability": "view",
      "type": "function"
    },
    {
      "inputs": [],
      "name": "getStakingInfo",
      "outputs": [
        {
          "components": [
            {
              "internalType": "address",
              "name": "stakingTokenAddress",
              "type": "address"
            },
            {
              "internalType": "uint256",
              "name": "totalSupply",
              "type": "uint256"
            },
            {
              "internalType": "uint256",
              "name": "supplyRatePerBlock",
              "type": "uint256"
            },
            {
              "internalType": "uint256",
              "name": "exchangeRate",
              "type": "uint256"
            },
            {
              "components": [
                {
                  "internalType": "address",
                  "name": "rewardTokenAddress",
                  "type": "address"
                },
                {
                  "internalType": "uint256",
                  "name": "rate",
                  "type": "uint256"
                }
              ],
              "internalType": "struct StakingRewardsHelper.RewardRate[]",
              "name": "rewardRates",
              "type": "tuple[]"
            }
          ],
          "internalType": "struct StakingRewardsHelper.StakingInfo[]",
          "name": "",
          "type": "tuple[]"
        }
      ],
      "stateMutability": "view",
      "type": "function"
    },
    {
      "inputs": [
        {
          "internalType": "address",
          "name": "account",
          "type": "address"
        },
        {
          "internalType": "address[]",
          "name": "rewardTokens",
          "type": "address[]"
        }
      ],
      "name": "getUserClaimableRewards",
      "outputs": [
        {
          "components": [
            {
              "components": [
                {
                  "internalType": "address",
                  "name": "rewardTokenAddress",
                  "type": "address"
                },
                {
                  "internalType": "string",
                  "name": "rewardTokenSymbol",
                  "type": "string"
                },
                {
                  "internalType": "uint8",
                  "name": "rewardTokenDecimals",
                  "type": "uint8"
                }
              ],
              "internalType": "struct StakingRewardsHelper.RewardTokenInfo",
              "name": "rewardToken",
              "type": "tuple"
            },
            {
              "internalType": "uint256",
              "name": "amount",
              "type": "uint256"
            }
          ],
          "internalType": "struct StakingRewardsHelper.RewardClaimable[]",
          "name": "",
          "type": "tuple[]"
        }
      ],
      "stateMutability": "view",
      "type": "function"
    },
    {
      "inputs": [
        {
          "internalType": "address",
          "name": "account",
          "type": "address"
        }
      ],
      "name": "getUserStaked",
      "outputs": [
        {
          "components": [
            {
              "internalType": "address",
              "name": "stakingTokenAddress",
              "type": "address"
            },
            {
              "internalType": "uint256",
              "name": "balance",
              "type": "uint256"
            }
          ],
          "internalType": "struct StakingRewardsHelper.UserStaked[]",
          "name": "",
          "type": "tuple[]"
        }
      ],
      "stateMutability": "view",
      "type": "function"
    },
    {
      "inputs": [],
      "name": "owner",
      "outputs": [
        {
          "internalType": "address",
          "name": "",
          "type": "address"
        }
      ],
      "stateMutability": "view",
      "type": "function"
    },
    {
      "inputs": [],
      "name": "renounceOwnership",
      "outputs": [],
      "stateMutability": "nonpayable",
      "type": "function"
    },
    {
      "inputs": [
        {
          "internalType": "address",
          "name": "token",
          "type": "address"
        },
        {
          "internalType": "uint256",
          "name": "amount",
          "type": "uint256"
        }
      ],
      "name": "seize",
      "outputs": [],
      "stateMutability": "nonpayable",
      "type": "function"
    },
    {
      "inputs": [
        {
          "internalType": "address",
          "name": "underlying",
          "type": "address"
        },
        {
          "internalType": "uint256",
          "name": "amount",
          "type": "uint256"
        }
      ],
      "name": "stake",
      "outputs": [],
      "stateMutability": "nonpayable",
      "type": "function"
    },
    {
      "inputs": [],
      "name": "stakeNative",
      "outputs": [],
      "stateMutability": "payable",
      "type": "function"
    },
    {
      "inputs": [
        {
          "internalType": "address",
          "name": "newOwner",
          "type": "address"
        }
      ],
      "name": "transferOwnership",
      "outputs": [],
      "stateMutability": "nonpayable",
      "type": "function"
    },
    {
      "inputs": [
        {
          "internalType": "address",
          "name": "stakingRewards",
          "type": "address"
        },
        {
          "internalType": "uint256",
          "name": "amount",
          "type": "uint256"
        }
      ],
      "name": "unstake",
      "outputs": [],
      "stateMutability": "nonpayable",
      "type": "function"
    },
    {
      "inputs": [
        {
          "internalType": "uint256",
          "name": "amount",
          "type": "uint256"
        }
      ],
      "name": "unstakeNative",
      "outputs": [],
      "stateMutability": "nonpayable",
      "type": "function"
    },
    {
      "inputs": [],
      "name": "wrappedNative",
      "outputs": [
        {
          "internalType": "address",
          "name": "",
          "type": "address"
        }
      ],
      "stateMutability": "view",
      "type": "function"
    },
    {
      "stateMutability": "payable",
      "type": "receive"
    }
  ],
  "transactionHash": "0x25398cced935dff204dfcb4e0b4dd322222b39dbebcc3e8e535a9d779e720cd0",
  "args": [
    "0xC8eEb091755426f163276AE28bb499B37BF71618",
    "0xB31f66AA3C1e785363F0875A1B74E27b85FD66c7"
  ],
  "numDeployments": 2,
  "solcInputHash": "6a6463cae2e61f334575d0a5872bd49a",
  "bytecode": "0x60c06040523480156200001157600080fd5b5060405162003054380380620030548339810160408190526200003491620000c4565b6200003f3362000057565b6001600160a01b039182166080521660a052620000fc565b600080546001600160a01b038381166001600160a01b0319831681178455604051919092169283917f8be0079c531659141344cd1fd0a4f28419497f9722a3daafe3b4186f6b6457e09190a35050565b80516001600160a01b0381168114620000bf57600080fd5b919050565b60008060408385031215620000d857600080fd5b620000e383620000a7565b9150620000f360208401620000a7565b90509250929050565b60805160a051612eb4620001a0600039600081816102c80152818161044b015281816104d10152818161065f01528181611fa001528181612236015281816122c2015261239301526000818161023a0152818161038e015281816104fd015281816105b3015281816108c8015281816109cf01528181610a8501528181610f2c0152818161181801528181611a1d01528181611fcb01526120810152612eb46000f3fe60806040526004361061010d5760003560e01c8063c45a015511610095578063eb9253c011610064578063eb9253c0146102ea578063f2fde38b1461030a578063f6670bd61461032a578063f9f031df1461034a578063ff8ab5f11461036a57600080fd5b8063c45a015514610228578063d3e64cab1461025c578063dac3fc3f14610289578063eb6d3a11146102b657600080fd5b80638da5cb5b116100dc5780638da5cb5b14610162578063adc9772e14610199578063b2989f5d146101b9578063b40cd21d146101e6578063c2a672e01461020857600080fd5b80630b83a72714610119578063590fcdda146101305780635b6c508c14610138578063715018a61461014d57600080fd5b3661011457005b600080fd5b34801561012557600080fd5b5061012e61038a565b005b61012e610420565b34801561014457600080fd5b5061012e6108c4565b34801561015957600080fd5b5061012e610957565b34801561016e57600080fd5b506000546001600160a01b03165b6040516001600160a01b0390911681526020015b60405180910390f35b3480156101a557600080fd5b5061012e6101b4366004612717565b61098d565b3480156101c557600080fd5b506101d96101d4366004612743565b610e04565b60405161019091906127f6565b3480156101f257600080fd5b506101fb610f26565b6040516101909190612809565b34801561021457600080fd5b5061012e610223366004612717565b611429565b34801561023457600080fd5b5061017c7f000000000000000000000000000000000000000000000000000000000000000081565b34801561026857600080fd5b5061027c6102773660046128ea565b61179a565b6040516101909190612972565b34801561029557600080fd5b506102a96102a4366004612743565b611a17565b60405161019091906129e8565b3480156102c257600080fd5b5061017c7f000000000000000000000000000000000000000000000000000000000000000081565b3480156102f657600080fd5b5061012e610305366004612717565b611c60565b34801561031657600080fd5b5061012e610325366004612743565b611ced565b34801561033657600080fd5b5061012e610345366004612ab3565b611d85565b34801561035657600080fd5b5061012e610365366004612ab3565b611ed3565b34801561037657600080fd5b5061012e610385366004612b47565b611f69565b60007f00000000000000000000000000000000000000000000000000000000000000006001600160a01b031663918e4c0d6040518163ffffffff1660e01b8152600401600060405180830381865afa1580156103ea573d6000803e3d6000fd5b505050506040513d6000823e601f3d908101601f191682016040526104129190810190612b60565b905061041d81611ed3565b50565b600034116104495760405162461bcd60e51b815260040161044090612bef565b60405180910390fd5b7f00000000000000000000000000000000000000000000000000000000000000006001600160a01b031663d0e30db0346040518263ffffffff1660e01b81526004016000604051808303818588803b1580156104a457600080fd5b505af11580156104b8573d6000803e3d6000fd5b5050604051630a69c70f60e21b81526001600160a01b037f000000000000000000000000000000000000000000000000000000000000000081166004830152600094507f00000000000000000000000000000000000000000000000000000000000000001692506329a71c3c9150602401602060405180830381865afa158015610546573d6000803e3d6000fd5b505050506040513d601f19601f8201168201806040525081019061056a9190612c17565b90506001600160a01b0381166105925760405162461bcd60e51b815260040161044090612c34565b6040516210f7f160e91b81526001600160a01b0382811660048301526000917f0000000000000000000000000000000000000000000000000000000000000000909116906321efe20090602401602060405180830381865afa1580156105fc573d6000803e3d6000fd5b505050506040513d601f19601f820116820180604052508101906106209190612c17565b90506001600160a01b0381166106485760405162461bcd60e51b815260040161044090612c63565b60405163095ea7b360e01b81526001600160a01b037f0000000000000000000000000000000000000000000000000000000000000000169063095ea7b3906106969085903490600401612c9a565b6020604051808303816000875af11580156106b5573d6000803e3d6000fd5b505050506040513d601f19601f820116820180604052508101906106d99190612cb3565b5060405163140e25ad60e31b81523460048201526001600160a01b0383169063a0712d68906024016020604051808303816000875af1158015610720573d6000803e3d6000fd5b505050506040513d601f19601f820116820180604052508101906107449190612cd5565b1561077f5760405162461bcd60e51b815260206004820152600b60248201526a1b5a5b9d0819985a5b195960aa1b6044820152606401610440565b6040516370a0823160e01b81523060048201526000906001600160a01b038416906370a0823190602401602060405180830381865afa1580156107c6573d6000803e3d6000fd5b505050506040513d601f19601f820116820180604052508101906107ea9190612cd5565b60405163095ea7b360e01b81529091506001600160a01b0384169063095ea7b39061081b9085908590600401612c9a565b6020604051808303816000875af115801561083a573d6000803e3d6000fd5b505050506040513d601f19601f8201168201806040525081019061085e9190612cb3565b506040516305dc812160e31b81526001600160a01b03831690632ee409089061088d9033908590600401612c9a565b600060405180830381600087803b1580156108a757600080fd5b505af11580156108bb573d6000803e3d6000fd5b50505050505050565b60007f00000000000000000000000000000000000000000000000000000000000000006001600160a01b031663918e4c0d6040518163ffffffff1660e01b8152600401600060405180830381865afa158015610924573d6000803e3d6000fd5b505050506040513d6000823e601f3d908101601f1916820160405261094c9190810190612b60565b905061041d81611d85565b6000546001600160a01b031633146109815760405162461bcd60e51b815260040161044090612cee565b61098b60006123ca565b565b600081116109ad5760405162461bcd60e51b815260040161044090612bef565b604051630a69c70f60e21b81526001600160a01b0383811660048301526000917f0000000000000000000000000000000000000000000000000000000000000000909116906329a71c3c90602401602060405180830381865afa158015610a18573d6000803e3d6000fd5b505050506040513d601f19601f82011682018060405250810190610a3c9190612c17565b90506001600160a01b038116610a645760405162461bcd60e51b815260040161044090612c34565b6040516210f7f160e91b81526001600160a01b0382811660048301526000917f0000000000000000000000000000000000000000000000000000000000000000909116906321efe20090602401602060405180830381865afa158015610ace573d6000803e3d6000fd5b505050506040513d601f19601f82011682018060405250810190610af29190612c17565b90506001600160a01b038116610b1a5760405162461bcd60e51b815260040161044090612c63565b610b2f6001600160a01b03851633308661241a565b60405163095ea7b360e01b81526001600160a01b0385169063095ea7b390610b5d9085908790600401612c9a565b6020604051808303816000875af1158015610b7c573d6000803e3d6000fd5b505050506040513d601f19601f82011682018060405250810190610ba09190612cb3565b5060405163140e25ad60e31b8152600481018490526001600160a01b0383169063a0712d68906024016020604051808303816000875af1158015610be8573d6000803e3d6000fd5b505050506040513d601f19601f82011682018060405250810190610c0c9190612cd5565b15610c475760405162461bcd60e51b815260206004820152600b60248201526a1b5a5b9d0819985a5b195960aa1b6044820152606401610440565b6040516370a0823160e01b81523060048201526000906001600160a01b038416906370a0823190602401602060405180830381865afa158015610c8e573d6000803e3d6000fd5b505050506040513d601f19601f82011682018060405250810190610cb29190612cd5565b60405163095ea7b360e01b81529091506001600160a01b0384169063095ea7b390610ce39085908590600401612c9a565b6020604051808303816000875af1158015610d02573d6000803e3d6000fd5b505050506040513d601f19601f82011682018060405250810190610d269190612cb3565b506040516305dc812160e31b81526001600160a01b03831690632ee4090890610d559033908590600401612c9a565b600060405180830381600087803b158015610d6f57600080fd5b505af1158015610d83573d6000803e3d6000fd5b50506040516370a0823160e01b81523060048201526001600160a01b03861692506370a0823191506024015b602060405180830381865afa158015610dcc573d6000803e3d6000fd5b505050506040513d601f19601f82011682018060405250810190610df09190612cd5565b15610dfd57610dfd612d23565b5050505050565b610e34604051806060016040528060006001600160a01b0316815260200160608152602001600060ff1681525090565b6040518060600160405280836001600160a01b03168152602001836001600160a01b03166395d89b416040518163ffffffff1660e01b8152600401600060405180830381865afa158015610e8c573d6000803e3d6000fd5b505050506040513d6000823e601f3d908101601f19168201604052610eb49190810190612d39565b8152602001836001600160a01b031663313ce5676040518163ffffffff1660e01b8152600401602060405180830381865afa158015610ef7573d6000803e3d6000fd5b505050506040513d601f19601f82011682018060405250810190610f1b9190612dcd565b60ff16905292915050565b606060007f00000000000000000000000000000000000000000000000000000000000000006001600160a01b031663918e4c0d6040518163ffffffff1660e01b8152600401600060405180830381865afa158015610f88573d6000803e3d6000fd5b505050506040513d6000823e601f3d908101601f19168201604052610fb09190810190612b60565b90506000815167ffffffffffffffff811115610fce57610fce612a48565b60405190808252806020026020018201604052801561103a57816020015b6110276040518060a0016040528060006001600160a01b03168152602001600081526020016000815260200160008152602001606081525090565b815260200190600190039081610fec5790505b50905060005b825181101561142257600083828151811061105d5761105d612df0565b602002602001015190506000816001600160a01b0316638040c65b6040518163ffffffff1660e01b8152600401600060405180830381865afa1580156110a7573d6000803e3d6000fd5b505050506040513d6000823e601f3d908101601f191682016040526110cf9190810190612b60565b90506000815167ffffffffffffffff8111156110ed576110ed612a48565b60405190808252806020026020018201604052801561113257816020015b604080518082019091526000808252602082015281526020019060019003908161110b5790505b50905060005b825181101561122257600083828151811061115557611155612df0565b602090810291909101015160405163ea7cbff160e01b81526001600160a01b03808316600483015291925060009187169063ea7cbff190602401602060405180830381865afa1580156111ac573d6000803e3d6000fd5b505050506040513d601f19601f820116820180604052508101906111d09190612cd5565b90506040518060400160405280836001600160a01b031681526020018281525084848151811061120257611202612df0565b60200260200101819052505050808061121a90612e1c565b915050611138565b506000836001600160a01b0316639f9106d16040518163ffffffff1660e01b8152600401602060405180830381865afa158015611263573d6000803e3d6000fd5b505050506040513d601f19601f820116820180604052508101906112879190612c17565b90506000846001600160a01b03166318160ddd6040518163ffffffff1660e01b8152600401602060405180830381865afa1580156112c9573d6000803e3d6000fd5b505050506040513d601f19601f820116820180604052508101906112ed9190612cd5565b90506000826001600160a01b031663ae9d70b06040518163ffffffff1660e01b8152600401602060405180830381865afa15801561132f573d6000803e3d6000fd5b505050506040513d601f19601f820116820180604052508101906113539190612cd5565b90506000836001600160a01b031663182df0f56040518163ffffffff1660e01b8152600401602060405180830381865afa158015611395573d6000803e3d6000fd5b505050506040513d601f19601f820116820180604052508101906113b99190612cd5565b90506040518060a00160405280856001600160a01b03168152602001848152602001838152602001828152602001868152508989815181106113fd576113fd612df0565b602002602001018190525050505050505050808061141a90612e1c565b915050611040565b5092915050565b600081116114495760405162461bcd60e51b815260040161044090612bef565b6000826001600160a01b0316639f9106d16040518163ffffffff1660e01b8152600401602060405180830381865afa158015611489573d6000803e3d6000fd5b505050506040513d601f19601f820116820180604052508101906114ad9190612c17565b90506001600160a01b0381166114d55760405162461bcd60e51b815260040161044090612c34565b6000816001600160a01b0316636f307dc36040518163ffffffff1660e01b8152600401602060405180830381865afa158015611515573d6000803e3d6000fd5b505050506040513d601f19601f820116820180604052508101906115399190612c17565b90506001600160a01b0381166115865760405162461bcd60e51b8152602060048201526012602482015271696e76616c696420756e6465726c79696e6760701b6044820152606401610440565b604051636da8c6d960e11b81526001600160a01b0385169063db518db2906115b49033908790600401612c9a565b600060405180830381600087803b1580156115ce57600080fd5b505af11580156115e2573d6000803e3d6000fd5b505060405163db006a7560e01b8152600481018690526001600160a01b038516925063db006a7591506024016020604051808303816000875af115801561162d573d6000803e3d6000fd5b505050506040513d601f19601f820116820180604052508101906116519190612cd5565b1561168e5760405162461bcd60e51b815260206004820152600d60248201526c1c995919595b4819985a5b1959609a1b6044820152606401610440565b6040516370a0823160e01b81523060048201526000906001600160a01b038316906370a0823190602401602060405180830381865afa1580156116d5573d6000803e3d6000fd5b505050506040513d601f19601f820116820180604052508101906116f99190612cd5565b60405163a9059cbb60e01b81529091506001600160a01b0383169063a9059cbb9061172a9033908590600401612c9a565b6020604051808303816000875af1158015611749573d6000803e3d6000fd5b505050506040513d601f19601f8201168201806040525081019061176d9190612cb3565b506040516370a0823160e01b81523060048201526001600160a01b038316906370a0823190602401610daf565b606060008267ffffffffffffffff8111156117b7576117b7612a48565b60405190808252806020026020018201604052801561181157816020015b6040805160a081018252600091810182815260608083015260808201839052815260208101919091528152602001906001900390816117d55790505b50905060007f00000000000000000000000000000000000000000000000000000000000000006001600160a01b031663918e4c0d6040518163ffffffff1660e01b8152600401600060405180830381865afa158015611874573d6000803e3d6000fd5b505050506040513d6000823e601f3d908101601f1916820160405261189c9190810190612b60565b905060005b84811015611a0a576000805b835181101561199a5760008482815181106118ca576118ca612df0565b60200260200101519050806001600160a01b031663211dc32d8a8a878181106118f5576118f5612df0565b905060200201602081019061190a9190612743565b6040516001600160e01b031960e084901b1681526001600160a01b039182166004820152908d166024820152604401602060405180830381865afa158015611956573d6000803e3d6000fd5b505050506040513d601f19601f8201168201806040525081019061197a9190612cd5565b6119849084612e37565b925050808061199290612e1c565b9150506118ad565b5060405180604001604052806119d08989868181106119bb576119bb612df0565b90506020020160208101906101d49190612743565b8152602001828152508483815181106119eb576119eb612df0565b6020026020010181905250508080611a0290612e1c565b9150506118a1565b50909150505b9392505050565b606060007f00000000000000000000000000000000000000000000000000000000000000006001600160a01b031663918e4c0d6040518163ffffffff1660e01b8152600401600060405180830381865afa158015611a79573d6000803e3d6000fd5b505050506040513d6000823e601f3d908101601f19168201604052611aa19190810190612b60565b90506000815167ffffffffffffffff811115611abf57611abf612a48565b604051908082528060200260200182016040528015611b0457816020015b6040805180820190915260008082526020820152815260200190600190039081611add5790505b50905060005b8251811015611c58576000838281518110611b2757611b27612df0565b602002602001015190506000816001600160a01b0316639f9106d16040518163ffffffff1660e01b8152600401602060405180830381865afa158015611b71573d6000803e3d6000fd5b505050506040513d601f19601f82011682018060405250810190611b959190612c17565b6040516370a0823160e01b81526001600160a01b0389811660048301529192506000918416906370a0823190602401602060405180830381865afa158015611be1573d6000803e3d6000fd5b505050506040513d601f19601f82011682018060405250810190611c059190612cd5565b90506040518060400160405280836001600160a01b0316815260200182815250858581518110611c3757611c37612df0565b60200260200101819052505050508080611c5090612e1c565b915050611b0a565b509392505050565b6000546001600160a01b03163314611c8a5760405162461bcd60e51b815260040161044090612cee565b611cb0611c9f6000546001600160a01b031690565b6001600160a01b038416908361248b565b7fb930d7c3c6896f70ea10a959f1d9a7c04e0467138efa4c7040570d4b8f4894b68282604051611ce1929190612c9a565b60405180910390a15050565b6000546001600160a01b03163314611d175760405162461bcd60e51b815260040161044090612cee565b6001600160a01b038116611d7c5760405162461bcd60e51b815260206004820152602660248201527f4f776e61626c653a206e6577206f776e657220697320746865207a65726f206160448201526564647265737360d01b6064820152608401610440565b61041d816123ca565b60005b8151811015611ecf576000828281518110611da557611da5612df0565b60209081029190910101516040516370a0823160e01b81523360048201526001600160a01b03909116906370a0823190602401602060405180830381865afa158015611df5573d6000803e3d6000fd5b505050506040513d601f19601f82011682018060405250810190611e199190612cd5565b90508015611ebc57611e44838381518110611e3657611e36612df0565b602002602001015182611429565b828281518110611e5657611e56612df0565b602090810291909101015160405163055de27560e01b81523360048201526001600160a01b039091169063055de27590602401600060405180830381600087803b158015611ea357600080fd5b505af1158015611eb7573d6000803e3d6000fd5b505050505b5080611ec781612e1c565b915050611d88565b5050565b60005b8151811015611ecf57818181518110611ef157611ef1612df0565b602090810291909101015160405163055de27560e01b81523360048201526001600160a01b039091169063055de27590602401600060405180830381600087803b158015611f3e57600080fd5b505af1158015611f52573d6000803e3d6000fd5b505050508080611f6190612e1c565b915050611ed6565b60008111611f895760405162461bcd60e51b815260040161044090612bef565b604051630a69c70f60e21b81526001600160a01b037f0000000000000000000000000000000000000000000000000000000000000000811660048301526000917f0000000000000000000000000000000000000000000000000000000000000000909116906329a71c3c90602401602060405180830381865afa158015612014573d6000803e3d6000fd5b505050506040513d601f19601f820116820180604052508101906120389190612c17565b90506001600160a01b0381166120605760405162461bcd60e51b815260040161044090612c34565b6040516210f7f160e91b81526001600160a01b0382811660048301526000917f0000000000000000000000000000000000000000000000000000000000000000909116906321efe20090602401602060405180830381865afa1580156120ca573d6000803e3d6000fd5b505050506040513d601f19601f820116820180604052508101906120ee9190612c17565b90506001600160a01b0381166121165760405162461bcd60e51b815260040161044090612c63565b604051636da8c6d960e11b81526001600160a01b0382169063db518db2906121449033908790600401612c9a565b600060405180830381600087803b15801561215e57600080fd5b505af1158015612172573d6000803e3d6000fd5b505060405163db006a7560e01b8152600481018690526001600160a01b038516925063db006a7591506024016020604051808303816000875af11580156121bd573d6000803e3d6000fd5b505050506040513d601f19601f820116820180604052508101906121e19190612cd5565b1561221e5760405162461bcd60e51b815260206004820152600d60248201526c1c995919595b4819985a5b1959609a1b6044820152606401610440565b6040516370a0823160e01b81523060048201526000907f00000000000000000000000000000000000000000000000000000000000000006001600160a01b0316906370a0823190602401602060405180830381865afa158015612285573d6000803e3d6000fd5b505050506040513d601f19601f820116820180604052508101906122a99190612cd5565b604051632e1a7d4d60e01b8152600481018290529091507f00000000000000000000000000000000000000000000000000000000000000006001600160a01b031690632e1a7d4d90602401600060405180830381600087803b15801561230e57600080fd5b505af1158015612322573d6000803e3d6000fd5b50506040516000925033915083908381818185875af1925050503d8060008114612368576040519150601f19603f3d011682016040523d82523d6000602084013e61236d565b606091505b505090508061237e5761237e612d23565b6040516370a0823160e01b81523060048201527f00000000000000000000000000000000000000000000000000000000000000006001600160a01b0316906370a0823190602401610daf565b600080546001600160a01b038381166001600160a01b0319831681178455604051919092169283917f8be0079c531659141344cd1fd0a4f28419497f9722a3daafe3b4186f6b6457e09190a35050565b6040516001600160a01b03808516602483015283166044820152606481018290526124859085906323b872dd60e01b906084015b60408051601f198184030181529190526020810180516001600160e01b03166001600160e01b0319909316929092179091526124af565b50505050565b6124aa8363a9059cbb60e01b848460405160240161244e929190612c9a565b505050565b6000612504826040518060400160405280602081526020017f5361666545524332303a206c6f772d6c6576656c2063616c6c206661696c6564815250856001600160a01b03166125819092919063ffffffff16565b8051909150156124aa57808060200190518101906125229190612cb3565b6124aa5760405162461bcd60e51b815260206004820152602a60248201527f5361666545524332303a204552433230206f7065726174696f6e20646964206e6044820152691bdd081cdd58d8d9595960b21b6064820152608401610440565b60606125908484600085612598565b949350505050565b6060824710156125f95760405162461bcd60e51b815260206004820152602660248201527f416464726573733a20696e73756666696369656e742062616c616e636520666f6044820152651c8818d85b1b60d21b6064820152608401610440565b6001600160a01b0385163b6126505760405162461bcd60e51b815260206004820152601d60248201527f416464726573733a2063616c6c20746f206e6f6e2d636f6e74726163740000006044820152606401610440565b600080866001600160a01b0316858760405161266c9190612e4f565b60006040518083038185875af1925050503d80600081146126a9576040519150601f19603f3d011682016040523d82523d6000602084013e6126ae565b606091505b50915091506126be8282866126c9565b979650505050505050565b606083156126d8575081611a10565b8251156126e85782518084602001fd5b8160405162461bcd60e51b81526004016104409190612e6b565b6001600160a01b038116811461041d57600080fd5b6000806040838503121561272a57600080fd5b823561273581612702565b946020939093013593505050565b60006020828403121561275557600080fd5b8135611a1081612702565b60005b8381101561277b578181015183820152602001612763565b838111156124855750506000910152565b600081518084526127a4816020860160208601612760565b601f01601f19169290920160200192915050565b60018060a01b03815116825260006020820151606060208501526127df606085018261278c565b60409384015160ff16949093019390935250919050565b602081526000611a1060208301846127b8565b60006020808301818452808551808352604092508286019150828160051b8701018488016000805b848110156128db57898403603f19018652825180516001600160a01b03168552888101518986015287810151888601526060808201519086015260809081015160a0918601829052805191860182905289019060c086019084905b808210156128c6576128b283855180516001600160a01b03168252602090810151910152565b928b0192918a01916001919091019061288c565b50509689019694505091870191600101612831565b50919998505050505050505050565b6000806000604084860312156128ff57600080fd5b833561290a81612702565b9250602084013567ffffffffffffffff8082111561292757600080fd5b818601915086601f83011261293b57600080fd5b81358181111561294a57600080fd5b8760208260051b850101111561295f57600080fd5b6020830194508093505050509250925092565b60006020808301818452808551808352604092508286019150828160051b87010184880160005b838110156129da57888303603f19018552815180518785526129bd888601826127b8565b918901519489019490945294870194925090860190600101612999565b509098975050505050505050565b602080825282518282018190526000919060409081850190868401855b82811015612a3b57612a2b84835180516001600160a01b03168252602090810151910152565b9284019290850190600101612a05565b5091979650505050505050565b634e487b7160e01b600052604160045260246000fd5b604051601f8201601f1916810167ffffffffffffffff81118282101715612a8757612a87612a48565b604052919050565b600067ffffffffffffffff821115612aa957612aa9612a48565b5060051b60200190565b60006020808385031215612ac657600080fd5b823567ffffffffffffffff811115612add57600080fd5b8301601f81018513612aee57600080fd5b8035612b01612afc82612a8f565b612a5e565b81815260059190911b82018301908381019087831115612b2057600080fd5b928401925b828410156126be578335612b3881612702565b82529284019290840190612b25565b600060208284031215612b5957600080fd5b5035919050565b60006020808385031215612b7357600080fd5b825167ffffffffffffffff811115612b8a57600080fd5b8301601f81018513612b9b57600080fd5b8051612ba9612afc82612a8f565b81815260059190911b82018301908381019087831115612bc857600080fd5b928401925b828410156126be578351612be081612702565b82529284019290840190612bcd565b6020808252600e908201526d1a5b9d985b1a5908185b5bdd5b9d60921b604082015260600190565b600060208284031215612c2957600080fd5b8151611a1081612702565b60208082526015908201527434b73b30b634b21039ba30b5b4b733903a37b5b2b760591b604082015260600190565b60208082526019908201527f7374616b696e672072657761726473206e6f7420657869737400000000000000604082015260600190565b6001600160a01b03929092168252602082015260400190565b600060208284031215612cc557600080fd5b81518015158114611a1057600080fd5b600060208284031215612ce757600080fd5b5051919050565b6020808252818101527f4f776e61626c653a2063616c6c6572206973206e6f7420746865206f776e6572604082015260600190565b634e487b7160e01b600052600160045260246000fd5b600060208284031215612d4b57600080fd5b815167ffffffffffffffff80821115612d6357600080fd5b818401915084601f830112612d7757600080fd5b815181811115612d8957612d89612a48565b612d9c601f8201601f1916602001612a5e565b9150808252856020828501011115612db357600080fd5b612dc4816020840160208601612760565b50949350505050565b600060208284031215612ddf57600080fd5b815160ff81168114611a1057600080fd5b634e487b7160e01b600052603260045260246000fd5b634e487b7160e01b600052601160045260246000fd5b6000600019821415612e3057612e30612e06565b5060010190565b60008219821115612e4a57612e4a612e06565b500190565b60008251612e61818460208701612760565b9190910192915050565b602081526000611a10602083018461278c56fea2646970667358221220648a2ba7df838ad820812aa63a6e103e1bfde2388eaeffe1097513cfca5fe9b564736f6c634300080c0033",
  "devdoc": {
    "kind": "dev",
    "methods": {
      "claimRewards(address[])": {
        "params": {
          "stakingRewards": "The list of staking rewards"
        }
      },
      "exit(address[])": {
        "params": {
          "stakingRewards": "The list of staking rewards"
        }
      },
      "getRewardTokenInfo(address)": {
        "params": {
          "rewardToken": "The reward token"
        },
        "returns": {
          "_0": "The reward token info"
        }
      },
      "getStakingInfo()": {
        "returns": {
          "_0": "The list of staking info"
        }
      },
      "getUserClaimableRewards(address,address[])": {
        "params": {
          "account": "The account",
          "rewardTokens": "The list of reward tokens"
        },
        "returns": {
          "_0": "The list of user claimable rewards"
        }
      },
      "getUserStaked(address)": {
        "params": {
          "account": "The account"
        },
        "returns": {
          "_0": "The list of user staked info"
        }
      },
      "owner()": {
        "details": "Returns the address of the current owner."
      },
      "renounceOwnership()": {
        "details": "Leaves the contract without owner. It will not be possible to call `onlyOwner` functions anymore. Can only be called by the current owner. NOTE: Renouncing ownership will leave the contract without an owner, thereby removing any functionality that is only available to the owner."
      },
      "seize(address,uint256)": {
        "params": {
          "amount": "The amount",
          "token": "The token"
        }
      },
      "stake(address,uint256)": {
        "params": {
          "amount": "The amount",
          "underlying": "The underlying token"
        }
      },
      "transferOwnership(address)": {
        "details": "Transfers ownership of the contract to a new account (`newOwner`). Can only be called by the current owner."
      },
      "unstake(address,uint256)": {
        "params": {
          "amount": "The amount",
          "stakingRewards": "The staking rewards"
        }
      }
    },
    "version": 1
  },
  "userdoc": {
    "events": {
      "TokenSeized(address,uint256)": {
        "notice": "Emitted when tokens are seized"
      }
    },
    "kind": "user",
    "methods": {
      "claimAllRewards()": {
        "notice": "Claim all rewards"
      },
      "claimRewards(address[])": {
        "notice": "Claim rewards by given staking rewards"
      },
      "exit(address[])": {
        "notice": "Exit staking rewards"
      },
      "exitAll()": {
        "notice": "Exit all staking rewards"
      },
      "getRewardTokenInfo(address)": {
        "notice": "Getthe reward token info"
      },
      "getStakingInfo()": {
        "notice": "Get all the staking info"
      },
      "getUserClaimableRewards(address,address[])": {
        "notice": "Get user claimable rewards"
      },
      "getUserStaked(address)": {
        "notice": "Get user staked info"
      },
      "seize(address,uint256)": {
        "notice": "Seize tokens in this contract."
      },
      "stake(address,uint256)": {
        "notice": "Mint and stake tokens into staking rewards"
      },
      "unstake(address,uint256)": {
        "notice": "Unstake tokens from staking rewards and redeem"
      }
    },
    "version": 1
  },
  "storageLayout": {
    "storage": [
      {
        "astId": 7,
        "contract": "contracts/StakingRewardsHelper.sol:StakingRewardsHelper",
        "label": "_owner",
        "offset": 0,
        "slot": "0",
        "type": "t_address"
      }
    ],
    "types": {
      "t_address": {
        "encoding": "inplace",
        "label": "address",
        "numberOfBytes": "20"
      }
    }
  }
}